{
  "_format": "hh-sol-artifact-1",
  "contractName": "EnitiumNFT",
  "sourceName": "contracts/enitiumnft.sol",
  "abi": [
    {
      "anonymous": false,
      "inputs": [
        {
          "indexed": true,
          "internalType": "address",
          "name": "owner",
          "type": "address"
        },
        {
          "indexed": true,
          "internalType": "address",
          "name": "approved",
          "type": "address"
        },
        {
          "indexed": true,
          "internalType": "uint256",
          "name": "tokenId",
          "type": "uint256"
        }
      ],
      "name": "Approval",
      "type": "event"
    },
    {
      "anonymous": false,
      "inputs": [
        {
          "indexed": true,
          "internalType": "address",
          "name": "owner",
          "type": "address"
        },
        {
          "indexed": true,
          "internalType": "address",
          "name": "operator",
          "type": "address"
        },
        {
          "indexed": false,
          "internalType": "bool",
          "name": "approved",
          "type": "bool"
        }
      ],
      "name": "ApprovalForAll",
      "type": "event"
    },
    {
      "anonymous": false,
      "inputs": [
        {
          "indexed": true,
          "internalType": "address",
          "name": "previousOwner",
          "type": "address"
        },
        {
          "indexed": true,
          "internalType": "address",
          "name": "newOwner",
          "type": "address"
        }
      ],
      "name": "OwnershipTransferred",
      "type": "event"
    },
    {
      "anonymous": false,
      "inputs": [
        {
          "indexed": true,
          "internalType": "address",
          "name": "from",
          "type": "address"
        },
        {
          "indexed": true,
          "internalType": "address",
          "name": "to",
          "type": "address"
        },
        {
          "indexed": true,
          "internalType": "uint256",
          "name": "tokenId",
          "type": "uint256"
        }
      ],
      "name": "Transfer",
      "type": "event"
    },
    {
      "inputs": [
        {
          "internalType": "address",
          "name": "to",
          "type": "address"
        },
        {
          "internalType": "uint256",
          "name": "tokenId",
          "type": "uint256"
        }
      ],
      "name": "approve",
      "outputs": [],
      "stateMutability": "nonpayable",
      "type": "function"
    },
    {
      "inputs": [
        {
          "internalType": "address",
          "name": "owner",
          "type": "address"
        }
      ],
      "name": "balanceOf",
      "outputs": [
        {
          "internalType": "uint256",
          "name": "",
          "type": "uint256"
        }
      ],
      "stateMutability": "view",
      "type": "function"
    },
    {
      "inputs": [
        {
          "internalType": "uint256",
          "name": "tokenId",
          "type": "uint256"
        }
      ],
      "name": "burn",
      "outputs": [],
      "stateMutability": "nonpayable",
      "type": "function"
    },
    {
      "inputs": [
        {
          "internalType": "uint256",
          "name": "tokenId",
          "type": "uint256"
        }
      ],
      "name": "getApproved",
      "outputs": [
        {
          "internalType": "address",
          "name": "",
          "type": "address"
        }
      ],
      "stateMutability": "view",
      "type": "function"
    },
    {
      "inputs": [],
      "name": "initialize",
      "outputs": [],
      "stateMutability": "nonpayable",
      "type": "function"
    },
    {
      "inputs": [
        {
          "internalType": "address",
          "name": "owner",
          "type": "address"
        },
        {
          "internalType": "address",
          "name": "operator",
          "type": "address"
        }
      ],
      "name": "isApprovedForAll",
      "outputs": [
        {
          "internalType": "bool",
          "name": "",
          "type": "bool"
        }
      ],
      "stateMutability": "view",
      "type": "function"
    },
    {
      "inputs": [
        {
          "internalType": "address",
          "name": "recipient",
          "type": "address"
        },
        {
          "internalType": "string",
          "name": "tokenURI",
          "type": "string"
        }
      ],
      "name": "mintNFT",
      "outputs": [
        {
          "internalType": "uint256",
          "name": "",
          "type": "uint256"
        }
      ],
      "stateMutability": "nonpayable",
      "type": "function"
    },
    {
      "inputs": [],
      "name": "name",
      "outputs": [
        {
          "internalType": "string",
          "name": "",
          "type": "string"
        }
      ],
      "stateMutability": "view",
      "type": "function"
    },
    {
      "inputs": [],
      "name": "owner",
      "outputs": [
        {
          "internalType": "address",
          "name": "",
          "type": "address"
        }
      ],
      "stateMutability": "view",
      "type": "function"
    },
    {
      "inputs": [
        {
          "internalType": "uint256",
          "name": "tokenId",
          "type": "uint256"
        }
      ],
      "name": "ownerOf",
      "outputs": [
        {
          "internalType": "address",
          "name": "",
          "type": "address"
        }
      ],
      "stateMutability": "view",
      "type": "function"
    },
    {
      "inputs": [],
      "name": "renounceOwnership",
      "outputs": [],
      "stateMutability": "nonpayable",
      "type": "function"
    },
    {
      "inputs": [
        {
          "internalType": "address",
          "name": "from",
          "type": "address"
        },
        {
          "internalType": "address",
          "name": "to",
          "type": "address"
        },
        {
          "internalType": "uint256",
          "name": "tokenId",
          "type": "uint256"
        }
      ],
      "name": "safeTransferFrom",
      "outputs": [],
      "stateMutability": "nonpayable",
      "type": "function"
    },
    {
      "inputs": [
        {
          "internalType": "address",
          "name": "from",
          "type": "address"
        },
        {
          "internalType": "address",
          "name": "to",
          "type": "address"
        },
        {
          "internalType": "uint256",
          "name": "tokenId",
          "type": "uint256"
        },
        {
          "internalType": "bytes",
          "name": "_data",
          "type": "bytes"
        }
      ],
      "name": "safeTransferFrom",
      "outputs": [],
      "stateMutability": "nonpayable",
      "type": "function"
    },
    {
      "inputs": [
        {
          "internalType": "address",
          "name": "operator",
          "type": "address"
        },
        {
          "internalType": "bool",
          "name": "approved",
          "type": "bool"
        }
      ],
      "name": "setApprovalForAll",
      "outputs": [],
      "stateMutability": "nonpayable",
      "type": "function"
    },
    {
      "inputs": [
        {
          "internalType": "bytes4",
          "name": "interfaceId",
          "type": "bytes4"
        }
      ],
      "name": "supportsInterface",
      "outputs": [
        {
          "internalType": "bool",
          "name": "",
          "type": "bool"
        }
      ],
      "stateMutability": "view",
      "type": "function"
    },
    {
      "inputs": [],
      "name": "symbol",
      "outputs": [
        {
          "internalType": "string",
          "name": "",
          "type": "string"
        }
      ],
      "stateMutability": "view",
      "type": "function"
    },
    {
      "inputs": [
        {
          "internalType": "uint256",
          "name": "tokenId",
          "type": "uint256"
        }
      ],
      "name": "tokenURI",
      "outputs": [
        {
          "internalType": "string",
          "name": "",
          "type": "string"
        }
      ],
      "stateMutability": "view",
      "type": "function"
    },
    {
      "inputs": [
        {
          "internalType": "address",
          "name": "from",
          "type": "address"
        },
        {
          "internalType": "address",
          "name": "to",
          "type": "address"
        },
        {
          "internalType": "uint256",
          "name": "tokenId",
          "type": "uint256"
        }
      ],
      "name": "transferFrom",
      "outputs": [],
      "stateMutability": "nonpayable",
      "type": "function"
    },
    {
      "inputs": [
        {
          "internalType": "address",
          "name": "newOwner",
          "type": "address"
        }
      ],
      "name": "transferOwnership",
      "outputs": [],
      "stateMutability": "nonpayable",
      "type": "function"
    }
  ],
  "bytecode": "0x608060405234801561001057600080fd5b50613916806100206000396000f3fe608060405234801561001057600080fd5b50600436106101215760003560e01c8063715018a6116100ad578063b88d4fde11610071578063b88d4fde146102e0578063c87b56dd146102fc578063e985e9c51461032c578063eacabe141461035c578063f2fde38b1461038c57610121565b8063715018a6146102745780638129fc1c1461027e5780638da5cb5b1461028857806395d89b41146102a6578063a22cb465146102c457610121565b806323b872dd116100f457806323b872dd146101c057806342842e0e146101dc57806342966c68146101f85780636352211e1461021457806370a082311461024457610121565b806301ffc9a71461012657806306fdde0314610156578063081812fc14610174578063095ea7b3146101a4575b600080fd5b610140600480360381019061013b919061270f565b6103a8565b60405161014d9190612bc4565b60405180910390f35b61015e61048a565b60405161016b9190612bdf565b60405180910390f35b61018e60048036038101906101899190612761565b61051c565b60405161019b9190612b5d565b60405180910390f35b6101be60048036038101906101b991906126d3565b6105a1565b005b6101da60048036038101906101d59190612579565b6106b9565b005b6101f660048036038101906101f19190612579565b610719565b005b610212600480360381019061020d9190612761565b610739565b005b61022e60048036038101906102299190612761565b610795565b60405161023b9190612b5d565b60405180910390f35b61025e60048036038101906102599190612514565b610847565b60405161026b9190612ea1565b60405180910390f35b61027c6108ff565b005b610286610987565b005b610290610af7565b60405161029d9190612b5d565b60405180910390f35b6102ae610b21565b6040516102bb9190612bdf565b60405180910390f35b6102de60048036038101906102d99190612643565b610bb3565b005b6102fa60048036038101906102f591906125c8565b610bc9565b005b61031660048036038101906103119190612761565b610c2b565b6040516103239190612bdf565b60405180910390f35b6103466004803603810190610341919061253d565b610c3d565b6040516103539190612bc4565b60405180910390f35b6103766004803603810190610371919061267f565b610cd1565b6040516103839190612ea1565b60405180910390f35b6103a660048036038101906103a19190612514565b610d87565b005b60007f80ac58cd000000000000000000000000000000000000000000000000000000007bffffffffffffffffffffffffffffffffffffffffffffffffffffffff1916827bffffffffffffffffffffffffffffffffffffffffffffffffffffffff1916148061047357507f5b5e139f000000000000000000000000000000000000000000000000000000007bffffffffffffffffffffffffffffffffffffffffffffffffffffffff1916827bffffffffffffffffffffffffffffffffffffffffffffffffffffffff1916145b80610483575061048282610e7f565b5b9050919050565b606060658054610499906130f7565b80601f01602080910402602001604051908101604052809291908181526020018280546104c5906130f7565b80156105125780601f106104e757610100808354040283529160200191610512565b820191906000526020600020905b8154815290600101906020018083116104f557829003601f168201915b5050505050905090565b600061052782610ee9565b610566576040517f08c379a000000000000000000000000000000000000000000000000000000000815260040161055d90612da1565b60405180910390fd5b6069600083815260200190815260200160002060009054906101000a900473ffffffffffffffffffffffffffffffffffffffff169050919050565b60006105ac82610795565b90508073ffffffffffffffffffffffffffffffffffffffff168373ffffffffffffffffffffffffffffffffffffffff16141561061d576040517f08c379a000000000000000000000000000000000000000000000000000000000815260040161061490612e21565b60405180910390fd5b8073ffffffffffffffffffffffffffffffffffffffff1661063c610f55565b73ffffffffffffffffffffffffffffffffffffffff16148061066b575061066a81610665610f55565b610c3d565b5b6106aa576040517f08c379a00000000000000000000000000000000000000000000000000000000081526004016106a190612cc1565b60405180910390fd5b6106b48383610f5d565b505050565b6106ca6106c4610f55565b82611016565b610709576040517f08c379a000000000000000000000000000000000000000000000000000000000815260040161070090612e41565b60405180910390fd5b6107148383836110f4565b505050565b61073483838360405180602001604052806000815250610bc9565b505050565b61074a610744610f55565b82611016565b610789576040517f08c379a000000000000000000000000000000000000000000000000000000000815260040161078090612e81565b60405180910390fd5b61079281611350565b50565b6000806067600084815260200190815260200160002060009054906101000a900473ffffffffffffffffffffffffffffffffffffffff169050600073ffffffffffffffffffffffffffffffffffffffff168173ffffffffffffffffffffffffffffffffffffffff16141561083e576040517f08c379a000000000000000000000000000000000000000000000000000000000815260040161083590612d01565b60405180910390fd5b80915050919050565b60008073ffffffffffffffffffffffffffffffffffffffff168273ffffffffffffffffffffffffffffffffffffffff1614156108b8576040517f08c379a00000000000000000000000000000000000000000000000000000000081526004016108af90612ce1565b60405180910390fd5b606860008373ffffffffffffffffffffffffffffffffffffffff1673ffffffffffffffffffffffffffffffffffffffff168152602001908152602001600020549050919050565b610907610f55565b73ffffffffffffffffffffffffffffffffffffffff16610925610af7565b73ffffffffffffffffffffffffffffffffffffffff161461097b576040517f08c379a000000000000000000000000000000000000000000000000000000000815260040161097290612dc1565b60405180910390fd5b610985600061135c565b565b600060019054906101000a900460ff166109af5760008054906101000a900460ff16156109b8565b6109b7611422565b5b6109f7576040517f08c379a00000000000000000000000000000000000000000000000000000000081526004016109ee90612d41565b60405180910390fd5b60008060019054906101000a900460ff161590508015610a47576001600060016101000a81548160ff02191690831515021790555060016000806101000a81548160ff0219169083151502179055505b610abb6040518060400160405280600a81526020017f456e697469756d4e4654000000000000000000000000000000000000000000008152506040518060400160405280600581526020017f656e667479000000000000000000000000000000000000000000000000000000815250611433565b610ac36114a0565b610acb611509565b610ad3611572565b8015610af45760008060016101000a81548160ff0219169083151502179055505b50565b600060fb60009054906101000a900473ffffffffffffffffffffffffffffffffffffffff16905090565b606060668054610b30906130f7565b80601f0160208091040260200160405190810160405280929190818152602001828054610b5c906130f7565b8015610ba95780601f10610b7e57610100808354040283529160200191610ba9565b820191906000526020600020905b815481529060010190602001808311610b8c57829003601f168201915b5050505050905090565b610bc5610bbe610f55565b83836115d3565b5050565b610bda610bd4610f55565b83611016565b610c19576040517f08c379a0000000000000000000000000000000000000000000000000000000008152600401610c1090612e41565b60405180910390fd5b610c2584848484611740565b50505050565b6060610c368261179c565b9050919050565b6000606a60008473ffffffffffffffffffffffffffffffffffffffff1673ffffffffffffffffffffffffffffffffffffffff16815260200190815260200160002060008373ffffffffffffffffffffffffffffffffffffffff1673ffffffffffffffffffffffffffffffffffffffff16815260200190815260200160002060009054906101000a900460ff16905092915050565b6000610cdb610f55565b73ffffffffffffffffffffffffffffffffffffffff16610cf9610af7565b73ffffffffffffffffffffffffffffffffffffffff1614610d4f576040517f08c379a0000000000000000000000000000000000000000000000000000000008152600401610d4690612dc1565b60405180910390fd5b610d5a61012d6118ee565b6000610d6761012d611904565b9050610d738482611912565b610d7d8184611ae0565b8091505092915050565b610d8f610f55565b73ffffffffffffffffffffffffffffffffffffffff16610dad610af7565b73ffffffffffffffffffffffffffffffffffffffff1614610e03576040517f08c379a0000000000000000000000000000000000000000000000000000000008152600401610dfa90612dc1565b60405180910390fd5b600073ffffffffffffffffffffffffffffffffffffffff168173ffffffffffffffffffffffffffffffffffffffff161415610e73576040517f08c379a0000000000000000000000000000000000000000000000000000000008152600401610e6a90612c21565b60405180910390fd5b610e7c8161135c565b50565b60007f01ffc9a7000000000000000000000000000000000000000000000000000000007bffffffffffffffffffffffffffffffffffffffffffffffffffffffff1916827bffffffffffffffffffffffffffffffffffffffffffffffffffffffff1916149050919050565b60008073ffffffffffffffffffffffffffffffffffffffff166067600084815260200190815260200160002060009054906101000a900473ffffffffffffffffffffffffffffffffffffffff1673ffffffffffffffffffffffffffffffffffffffff1614159050919050565b600033905090565b816069600083815260200190815260200160002060006101000a81548173ffffffffffffffffffffffffffffffffffffffff021916908373ffffffffffffffffffffffffffffffffffffffff160217905550808273ffffffffffffffffffffffffffffffffffffffff16610fd083610795565b73ffffffffffffffffffffffffffffffffffffffff167f8c5be1e5ebec7d5bd14f71427d1e84f3dd0314c0f7b2291e5b200ac8c7c3b92560405160405180910390a45050565b600061102182610ee9565b611060576040517f08c379a000000000000000000000000000000000000000000000000000000000815260040161105790612ca1565b60405180910390fd5b600061106b83610795565b90508073ffffffffffffffffffffffffffffffffffffffff168473ffffffffffffffffffffffffffffffffffffffff1614806110da57508373ffffffffffffffffffffffffffffffffffffffff166110c28461051c565b73ffffffffffffffffffffffffffffffffffffffff16145b806110eb57506110ea8185610c3d565b5b91505092915050565b8273ffffffffffffffffffffffffffffffffffffffff1661111482610795565b73ffffffffffffffffffffffffffffffffffffffff161461116a576040517f08c379a000000000000000000000000000000000000000000000000000000000815260040161116190612de1565b60405180910390fd5b600073ffffffffffffffffffffffffffffffffffffffff168273ffffffffffffffffffffffffffffffffffffffff1614156111da576040517f08c379a00000000000000000000000000000000000000000000000000000000081526004016111d190612c61565b60405180910390fd5b6111e5838383611b54565b6111f0600082610f5d565b6001606860008573ffffffffffffffffffffffffffffffffffffffff1673ffffffffffffffffffffffffffffffffffffffff1681526020019081526020016000206000828254611240919061300d565b925050819055506001606860008473ffffffffffffffffffffffffffffffffffffffff1673ffffffffffffffffffffffffffffffffffffffff16815260200190815260200160002060008282546112979190612f86565b92505081905550816067600083815260200190815260200160002060006101000a81548173ffffffffffffffffffffffffffffffffffffffff021916908373ffffffffffffffffffffffffffffffffffffffff160217905550808273ffffffffffffffffffffffffffffffffffffffff168473ffffffffffffffffffffffffffffffffffffffff167fddf252ad1be2c89b69c2b068fc378daa952ba7f163c4a11628f55a4df523b3ef60405160405180910390a4505050565b61135981611b59565b50565b600060fb60009054906101000a900473ffffffffffffffffffffffffffffffffffffffff1690508160fb60006101000a81548173ffffffffffffffffffffffffffffffffffffffff021916908373ffffffffffffffffffffffffffffffffffffffff1602179055508173ffffffffffffffffffffffffffffffffffffffff168173ffffffffffffffffffffffffffffffffffffffff167f8be0079c531659141344cd1fd0a4f28419497f9722a3daafe3b4186f6b6457e060405160405180910390a35050565b600061142d30611bac565b15905090565b600060019054906101000a900460ff16611482576040517f08c379a000000000000000000000000000000000000000000000000000000000815260040161147990612e61565b60405180910390fd5b61148a611bbf565b611492611c10565b61149c8282611c61565b5050565b600060019054906101000a900460ff166114ef576040517f08c379a00000000000000000000000000000000000000000000000000000000081526004016114e690612e61565b60405180910390fd5b6114f7611bbf565b6114ff611c10565b611507611ce2565b565b600060019054906101000a900460ff16611558576040517f08c379a000000000000000000000000000000000000000000000000000000000815260040161154f90612e61565b60405180910390fd5b611560611bbf565b611568611c10565b611570611d33565b565b600060019054906101000a900460ff166115c1576040517f08c379a00000000000000000000000000000000000000000000000000000000081526004016115b890612e61565b60405180910390fd5b6115c9611bbf565b6115d1611d84565b565b8173ffffffffffffffffffffffffffffffffffffffff168373ffffffffffffffffffffffffffffffffffffffff161415611642576040517f08c379a000000000000000000000000000000000000000000000000000000000815260040161163990612c81565b60405180910390fd5b80606a60008573ffffffffffffffffffffffffffffffffffffffff1673ffffffffffffffffffffffffffffffffffffffff16815260200190815260200160002060008473ffffffffffffffffffffffffffffffffffffffff1673ffffffffffffffffffffffffffffffffffffffff16815260200190815260200160002060006101000a81548160ff0219169083151502179055508173ffffffffffffffffffffffffffffffffffffffff168373ffffffffffffffffffffffffffffffffffffffff167f17307eab39ab6107e8899845ad3d59bd9653f200f220920489ca2b5937696c31836040516117339190612bc4565b60405180910390a3505050565b61174b8484846110f4565b61175784848484611de5565b611796576040517f08c379a000000000000000000000000000000000000000000000000000000000815260040161178d90612c01565b60405180910390fd5b50505050565b60606117a782610ee9565b6117e6576040517f08c379a00000000000000000000000000000000000000000000000000000000081526004016117dd90612d81565b60405180910390fd5b6000609760008481526020019081526020016000208054611806906130f7565b80601f0160208091040260200160405190810160405280929190818152602001828054611832906130f7565b801561187f5780601f106118545761010080835404028352916020019161187f565b820191906000526020600020905b81548152906001019060200180831161186257829003601f168201915b505050505090506000611890611f7c565b90506000815114156118a65781925050506118e9565b6000825111156118db5780826040516020016118c3929190612b39565b604051602081830303815290604052925050506118e9565b6118e484611f93565b925050505b919050565b6001816000016000828254019250508190555050565b600081600001549050919050565b600073ffffffffffffffffffffffffffffffffffffffff168273ffffffffffffffffffffffffffffffffffffffff161415611982576040517f08c379a000000000000000000000000000000000000000000000000000000000815260040161197990612d61565b60405180910390fd5b61198b81610ee9565b156119cb576040517f08c379a00000000000000000000000000000000000000000000000000000000081526004016119c290612c41565b60405180910390fd5b6119d760008383611b54565b6001606860008473ffffffffffffffffffffffffffffffffffffffff1673ffffffffffffffffffffffffffffffffffffffff1681526020019081526020016000206000828254611a279190612f86565b92505081905550816067600083815260200190815260200160002060006101000a81548173ffffffffffffffffffffffffffffffffffffffff021916908373ffffffffffffffffffffffffffffffffffffffff160217905550808273ffffffffffffffffffffffffffffffffffffffff16600073ffffffffffffffffffffffffffffffffffffffff167fddf252ad1be2c89b69c2b068fc378daa952ba7f163c4a11628f55a4df523b3ef60405160405180910390a45050565b611ae982610ee9565b611b28576040517f08c379a0000000000000000000000000000000000000000000000000000000008152600401611b1f90612d21565b60405180910390fd5b80609760008481526020019081526020016000209080519060200190611b4f9291906122f8565b505050565b505050565b611b628161203a565b6000609760008381526020019081526020016000208054611b82906130f7565b905014611ba957609760008281526020019081526020016000206000611ba8919061237e565b5b50565b600080823b905060008111915050919050565b600060019054906101000a900460ff16611c0e576040517f08c379a0000000000000000000000000000000000000000000000000000000008152600401611c0590612e61565b60405180910390fd5b565b600060019054906101000a900460ff16611c5f576040517f08c379a0000000000000000000000000000000000000000000000000000000008152600401611c5690612e61565b60405180910390fd5b565b600060019054906101000a900460ff16611cb0576040517f08c379a0000000000000000000000000000000000000000000000000000000008152600401611ca790612e61565b60405180910390fd5b8160659080519060200190611cc69291906122f8565b508060669080519060200190611cdd9291906122f8565b505050565b600060019054906101000a900460ff16611d31576040517f08c379a0000000000000000000000000000000000000000000000000000000008152600401611d2890612e61565b60405180910390fd5b565b600060019054906101000a900460ff16611d82576040517f08c379a0000000000000000000000000000000000000000000000000000000008152600401611d7990612e61565b60405180910390fd5b565b600060019054906101000a900460ff16611dd3576040517f08c379a0000000000000000000000000000000000000000000000000000000008152600401611dca90612e61565b60405180910390fd5b611de3611dde610f55565b61135c565b565b6000611e068473ffffffffffffffffffffffffffffffffffffffff16611bac565b15611f6f578373ffffffffffffffffffffffffffffffffffffffff1663150b7a02611e2f610f55565b8786866040518563ffffffff1660e01b8152600401611e519493929190612b78565b602060405180830381600087803b158015611e6b57600080fd5b505af1925050508015611e9c57506040513d601f19601f82011682018060405250810190611e999190612738565b60015b611f1f573d8060008114611ecc576040519150601f19603f3d011682016040523d82523d6000602084013e611ed1565b606091505b50600081511415611f17576040517f08c379a0000000000000000000000000000000000000000000000000000000008152600401611f0e90612c01565b60405180910390fd5b805181602001fd5b63150b7a0260e01b7bffffffffffffffffffffffffffffffffffffffffffffffffffffffff1916817bffffffffffffffffffffffffffffffffffffffffffffffffffffffff191614915050611f74565b600190505b949350505050565b606060405180602001604052806000815250905090565b6060611f9e82610ee9565b611fdd576040517f08c379a0000000000000000000000000000000000000000000000000000000008152600401611fd490612e01565b60405180910390fd5b6000611fe7611f7c565b905060008151116120075760405180602001604052806000815250612032565b806120118461214b565b604051602001612022929190612b39565b6040516020818303038152906040525b915050919050565b600061204582610795565b905061205381600084611b54565b61205e600083610f5d565b6001606860008373ffffffffffffffffffffffffffffffffffffffff1673ffffffffffffffffffffffffffffffffffffffff16815260200190815260200160002060008282546120ae919061300d565b925050819055506067600083815260200190815260200160002060006101000a81549073ffffffffffffffffffffffffffffffffffffffff021916905581600073ffffffffffffffffffffffffffffffffffffffff168273ffffffffffffffffffffffffffffffffffffffff167fddf252ad1be2c89b69c2b068fc378daa952ba7f163c4a11628f55a4df523b3ef60405160405180910390a45050565b60606000821415612193576040518060400160405280600181526020017f300000000000000000000000000000000000000000000000000000000000000081525090506122f3565b600082905060005b600082146121c55780806121ae9061315a565b915050600a826121be9190612fdc565b915061219b565b60008167ffffffffffffffff811115612207577f4e487b7100000000000000000000000000000000000000000000000000000000600052604160045260246000fd5b6040519080825280601f01601f1916602001820160405280156122395781602001600182028036833780820191505090505b5090505b600085146122ec57600182612252919061300d565b9150600a8561226191906131a3565b603061226d9190612f86565b60f81b8183815181106122a9577f4e487b7100000000000000000000000000000000000000000000000000000000600052603260045260246000fd5b60200101907effffffffffffffffffffffffffffffffffffffffffffffffffffffffffffff1916908160001a905350600a856122e59190612fdc565b945061223d565b8093505050505b919050565b828054612304906130f7565b90600052602060002090601f016020900481019282612326576000855561236d565b82601f1061233f57805160ff191683800117855561236d565b8280016001018555821561236d579182015b8281111561236c578251825591602001919060010190612351565b5b50905061237a91906123be565b5090565b50805461238a906130f7565b6000825580601f1061239c57506123bb565b601f0160209004906000526020600020908101906123ba91906123be565b5b50565b5b808211156123d75760008160009055506001016123bf565b5090565b60006123ee6123e984612ee1565b612ebc565b90508281526020810184848401111561240657600080fd5b6124118482856130b5565b509392505050565b600061242c61242784612f12565b612ebc565b90508281526020810184848401111561244457600080fd5b61244f8482856130b5565b509392505050565b60008135905061246681613884565b92915050565b60008135905061247b8161389b565b92915050565b600081359050612490816138b2565b92915050565b6000815190506124a5816138b2565b92915050565b600082601f8301126124bc57600080fd5b81356124cc8482602086016123db565b91505092915050565b600082601f8301126124e657600080fd5b81356124f6848260208601612419565b91505092915050565b60008135905061250e816138c9565b92915050565b60006020828403121561252657600080fd5b600061253484828501612457565b91505092915050565b6000806040838503121561255057600080fd5b600061255e85828601612457565b925050602061256f85828601612457565b9150509250929050565b60008060006060848603121561258e57600080fd5b600061259c86828701612457565b93505060206125ad86828701612457565b92505060406125be868287016124ff565b9150509250925092565b600080600080608085870312156125de57600080fd5b60006125ec87828801612457565b94505060206125fd87828801612457565b935050604061260e878288016124ff565b925050606085013567ffffffffffffffff81111561262b57600080fd5b612637878288016124ab565b91505092959194509250565b6000806040838503121561265657600080fd5b600061266485828601612457565b92505060206126758582860161246c565b9150509250929050565b6000806040838503121561269257600080fd5b60006126a085828601612457565b925050602083013567ffffffffffffffff8111156126bd57600080fd5b6126c9858286016124d5565b9150509250929050565b600080604083850312156126e657600080fd5b60006126f485828601612457565b9250506020612705858286016124ff565b9150509250929050565b60006020828403121561272157600080fd5b600061272f84828501612481565b91505092915050565b60006020828403121561274a57600080fd5b600061275884828501612496565b91505092915050565b60006020828403121561277357600080fd5b6000612781848285016124ff565b91505092915050565b61279381613041565b82525050565b6127a281613053565b82525050565b60006127b382612f43565b6127bd8185612f59565b93506127cd8185602086016130c4565b6127d681613290565b840191505092915050565b60006127ec82612f4e565b6127f68185612f6a565b93506128068185602086016130c4565b61280f81613290565b840191505092915050565b600061282582612f4e565b61282f8185612f7b565b935061283f8185602086016130c4565b80840191505092915050565b6000612858603283612f6a565b9150612863826132a1565b604082019050919050565b600061287b602683612f6a565b9150612886826132f0565b604082019050919050565b600061289e601c83612f6a565b91506128a98261333f565b602082019050919050565b60006128c1602483612f6a565b91506128cc82613368565b604082019050919050565b60006128e4601983612f6a565b91506128ef826133b7565b602082019050919050565b6000612907602c83612f6a565b9150612912826133e0565b604082019050919050565b600061292a603883612f6a565b91506129358261342f565b604082019050919050565b600061294d602a83612f6a565b91506129588261347e565b604082019050919050565b6000612970602983612f6a565b915061297b826134cd565b604082019050919050565b6000612993602e83612f6a565b915061299e8261351c565b604082019050919050565b60006129b6602e83612f6a565b91506129c18261356b565b604082019050919050565b60006129d9602083612f6a565b91506129e4826135ba565b602082019050919050565b60006129fc603183612f6a565b9150612a07826135e3565b604082019050919050565b6000612a1f602c83612f6a565b9150612a2a82613632565b604082019050919050565b6000612a42602083612f6a565b9150612a4d82613681565b602082019050919050565b6000612a65602983612f6a565b9150612a70826136aa565b604082019050919050565b6000612a88602f83612f6a565b9150612a93826136f9565b604082019050919050565b6000612aab602183612f6a565b9150612ab682613748565b604082019050919050565b6000612ace603183612f6a565b9150612ad982613797565b604082019050919050565b6000612af1602b83612f6a565b9150612afc826137e6565b604082019050919050565b6000612b14603083612f6a565b9150612b1f82613835565b604082019050919050565b612b33816130ab565b82525050565b6000612b45828561281a565b9150612b51828461281a565b91508190509392505050565b6000602082019050612b72600083018461278a565b92915050565b6000608082019050612b8d600083018761278a565b612b9a602083018661278a565b612ba76040830185612b2a565b8181036060830152612bb981846127a8565b905095945050505050565b6000602082019050612bd96000830184612799565b92915050565b60006020820190508181036000830152612bf981846127e1565b905092915050565b60006020820190508181036000830152612c1a8161284b565b9050919050565b60006020820190508181036000830152612c3a8161286e565b9050919050565b60006020820190508181036000830152612c5a81612891565b9050919050565b60006020820190508181036000830152612c7a816128b4565b9050919050565b60006020820190508181036000830152612c9a816128d7565b9050919050565b60006020820190508181036000830152612cba816128fa565b9050919050565b60006020820190508181036000830152612cda8161291d565b9050919050565b60006020820190508181036000830152612cfa81612940565b9050919050565b60006020820190508181036000830152612d1a81612963565b9050919050565b60006020820190508181036000830152612d3a81612986565b9050919050565b60006020820190508181036000830152612d5a816129a9565b9050919050565b60006020820190508181036000830152612d7a816129cc565b9050919050565b60006020820190508181036000830152612d9a816129ef565b9050919050565b60006020820190508181036000830152612dba81612a12565b9050919050565b60006020820190508181036000830152612dda81612a35565b9050919050565b60006020820190508181036000830152612dfa81612a58565b9050919050565b60006020820190508181036000830152612e1a81612a7b565b9050919050565b60006020820190508181036000830152612e3a81612a9e565b9050919050565b60006020820190508181036000830152612e5a81612ac1565b9050919050565b60006020820190508181036000830152612e7a81612ae4565b9050919050565b60006020820190508181036000830152612e9a81612b07565b9050919050565b6000602082019050612eb66000830184612b2a565b92915050565b6000612ec6612ed7565b9050612ed28282613129565b919050565b6000604051905090565b600067ffffffffffffffff821115612efc57612efb613261565b5b612f0582613290565b9050602081019050919050565b600067ffffffffffffffff821115612f2d57612f2c613261565b5b612f3682613290565b9050602081019050919050565b600081519050919050565b600081519050919050565b600082825260208201905092915050565b600082825260208201905092915050565b600081905092915050565b6000612f91826130ab565b9150612f9c836130ab565b9250827fffffffffffffffffffffffffffffffffffffffffffffffffffffffffffffffff03821115612fd157612fd06131d4565b5b828201905092915050565b6000612fe7826130ab565b9150612ff2836130ab565b92508261300257613001613203565b5b828204905092915050565b6000613018826130ab565b9150613023836130ab565b925082821015613036576130356131d4565b5b828203905092915050565b600061304c8261308b565b9050919050565b60008115159050919050565b60007fffffffff0000000000000000000000000000000000000000000000000000000082169050919050565b600073ffffffffffffffffffffffffffffffffffffffff82169050919050565b6000819050919050565b82818337600083830152505050565b60005b838110156130e25780820151818401526020810190506130c7565b838111156130f1576000848401525b50505050565b6000600282049050600182168061310f57607f821691505b6020821081141561312357613122613232565b5b50919050565b61313282613290565b810181811067ffffffffffffffff8211171561315157613150613261565b5b80604052505050565b6000613165826130ab565b91507fffffffffffffffffffffffffffffffffffffffffffffffffffffffffffffffff821415613198576131976131d4565b5b600182019050919050565b60006131ae826130ab565b91506131b9836130ab565b9250826131c9576131c8613203565b5b828206905092915050565b7f4e487b7100000000000000000000000000000000000000000000000000000000600052601160045260246000fd5b7f4e487b7100000000000000000000000000000000000000000000000000000000600052601260045260246000fd5b7f4e487b7100000000000000000000000000000000000000000000000000000000600052602260045260246000fd5b7f4e487b7100000000000000000000000000000000000000000000000000000000600052604160045260246000fd5b6000601f19601f8301169050919050565b7f4552433732313a207472616e7366657220746f206e6f6e20455243373231526560008201527f63656976657220696d706c656d656e7465720000000000000000000000000000602082015250565b7f4f776e61626c653a206e6577206f776e657220697320746865207a65726f206160008201527f6464726573730000000000000000000000000000000000000000000000000000602082015250565b7f4552433732313a20746f6b656e20616c7265616479206d696e74656400000000600082015250565b7f4552433732313a207472616e7366657220746f20746865207a65726f2061646460008201527f7265737300000000000000000000000000000000000000000000000000000000602082015250565b7f4552433732313a20617070726f766520746f2063616c6c657200000000000000600082015250565b7f4552433732313a206f70657261746f7220717565727920666f72206e6f6e657860008201527f697374656e7420746f6b656e0000000000000000000000000000000000000000602082015250565b7f4552433732313a20617070726f76652063616c6c6572206973206e6f74206f7760008201527f6e6572206e6f7220617070726f76656420666f7220616c6c0000000000000000602082015250565b7f4552433732313a2062616c616e636520717565727920666f7220746865207a6560008201527f726f206164647265737300000000000000000000000000000000000000000000602082015250565b7f4552433732313a206f776e657220717565727920666f72206e6f6e657869737460008201527f656e7420746f6b656e0000000000000000000000000000000000000000000000602082015250565b7f45524337323155524953746f726167653a2055524920736574206f66206e6f6e60008201527f6578697374656e7420746f6b656e000000000000000000000000000000000000602082015250565b7f496e697469616c697a61626c653a20636f6e747261637420697320616c72656160008201527f647920696e697469616c697a6564000000000000000000000000000000000000602082015250565b7f4552433732313a206d696e7420746f20746865207a65726f2061646472657373600082015250565b7f45524337323155524953746f726167653a2055524920717565727920666f722060008201527f6e6f6e6578697374656e7420746f6b656e000000000000000000000000000000602082015250565b7f4552433732313a20617070726f76656420717565727920666f72206e6f6e657860008201527f697374656e7420746f6b656e0000000000000000000000000000000000000000602082015250565b7f4f776e61626c653a2063616c6c6572206973206e6f7420746865206f776e6572600082015250565b7f4552433732313a207472616e73666572206f6620746f6b656e2074686174206960008201527f73206e6f74206f776e0000000000000000000000000000000000000000000000602082015250565b7f4552433732314d657461646174613a2055524920717565727920666f72206e6f60008201527f6e6578697374656e7420746f6b656e0000000000000000000000000000000000602082015250565b7f4552433732313a20617070726f76616c20746f2063757272656e74206f776e6560008201527f7200000000000000000000000000000000000000000000000000000000000000602082015250565b7f4552433732313a207472616e736665722063616c6c6572206973206e6f74206f60008201527f776e6572206e6f7220617070726f766564000000000000000000000000000000602082015250565b7f496e697469616c697a61626c653a20636f6e7472616374206973206e6f74206960008201527f6e697469616c697a696e67000000000000000000000000000000000000000000602082015250565b7f4552433732314275726e61626c653a2063616c6c6572206973206e6f74206f7760008201527f6e6572206e6f7220617070726f76656400000000000000000000000000000000602082015250565b61388d81613041565b811461389857600080fd5b50565b6138a481613053565b81146138af57600080fd5b50565b6138bb8161305f565b81146138c657600080fd5b50565b6138d2816130ab565b81146138dd57600080fd5b5056fea26469706673582212208d37a0ebc867b4571b9d84fcc3a5a01b01b74d1f75c1c13d1241a88b79347b3864736f6c63430008030033",
  "linkReferences": {},
  "deployedLinkReferences": {}
}